:020000040000FA
:0400000088EF01F094
:020004000000FA
:04000800B7EF01F05D
:04001800B5EF01F04F
:04001C00D08EF194FD
:10002000F28AF28EF28CD56A01D81200F294D59E33
:10003000CF0ED76E2C0ED66ED58E1200F7DF7AD982
:10004000120092948984056A979C8E9C5BD98E8C51
:100050000FD91CD927D956D955D93C0E046EFFD8D3
:100060000C0E046EFCD8010E046EF9D8060E046E58
:10007000F6D81200010E046EF2D838D912000750DB
:10008000066601D002D0400E0724E88E046EE7D841
:100090001200DBD82BD91200186A176AF46603D055
:1000A000090EF36402D009D8F9D7F350096E18503D
:1000B000F46E1750F36E09501200146A0A0E136E94
:1000C000166A156A1580D8901336143611E2D89046
:1000D000153616360AE2F450146204D0F350136455
:1000E000F2D702D01464EFD7D89016321532D890D8
:1000F000143213321350F35E1450F45A155017266D
:10010000165018221200186A176A040EF46001D003
:1001100002D009D8FAD7F350096E1850F46E175070
:10012000F36E09501200136A040E146E166A156AF3
:100130001580D8901336143611E2D890153616363D
:100140000AE2F450146204D0F3501364F2D702D0E0
:100150001464EFD7D89016321532D8901432133277
:100160001350F35E1450F45A1550172616501822E7
:10017000120000EE10F0ED6A050E0A6E8DDF300FF2
:10018000ED6E0A2EFBD71200F4DF10EE0BF04ED806
:100190001200086E096A080E0A6ED89008360936F1
:1001A0000A0E095CD8A003D00880096E01D008901F
:1001B0000A2EF3D708501200ECDF09501200E9DFD5
:1001C000300FEE6E2E0EEE6E0950300FEF6E1200F5
:1001D000E0DF300FEE6E0950300FEF6E120000EED0
:1001E0000EF0ED6AE9DF300FED6E0850E5DF300FFD
:1001F000ED6E0850300FEF6E1200F1DF10EE0BF0D5
:1002000015D81200116E113807D8046E42DF115054
:1002100003D8046E3EDF12000F0B126E090E12643B
:1002200002D0370E01D0300E12241200E76601D042
:100230001200E650046E2DDFF9D70900F56601D0F3
:100240001200F550046E25DFF8D7059C058E42D8C4
:1002500035D8058C3FD8056A3DD84DD81200056ABF
:1002600039D82CD8058C36D8056A34D844D8120031
:10027000949A9496220EC66EC78C9E9612000350D6
:10028000C96E9EA6FED79E96C95012008994400E54
:10029000036EF5DF000E036EF2DF000E036EEFDF7C
:1002A000898412008994400E036EE9DF010E036E0B
:1002B000E6DF000E036EE3DF898412008994400EAE
:1002C000036EDDDF130E036EDADF0450036ED7DF3B
:1002D000898412008994400E036ED1DF120E036EE2
:1002E000CEDF0550036ECBDF8984120004D803D81B
:1002F00002D801D81200F90E006E00000000002E96
:10030000FDD71200640E026EF6DF022EFDD712003A
:1003100008D884DE1AA0FED7F29E1A90F28E837E51
:10032000F9D70F0EC16E956A190E196E8C6A1A9064
:100330001B6A1200192E12001B2A1BA203D01BB02D
:1003400008D00BD01BB001D008D01A80320E196E25
:1003500012001A80320E196E12001A80190E196ED0
:10036000030E1B6212001B6A120068DE10001000F0
:020000040030CA
:0100010002FC
:010003001EDE
:010006008178
:00000001FF
